:100000000C94B6000C94D3000C94D3000C94D30041
:100010000C94D3000C94D3000C94D3000C94D30014
:100020000C94D3000C94D3000C94D3000C94D30004
:100030000C94D3000C94D3000C94D3000C94D300F4
:100040000C94D3000C94D3000C94D3000C94D300E4
:100050000C94D3000C94D3000C94D3000C94D300D4
:100060000C94D3000C94D3000C94D3000C94D300C4
:100070000C94D3000C94D3000C94D3000C94D300B4
:100080000C94D3000C94D3000C94D3000C94D300A4
:100090000C94D3000C94D3000C94D3000C94D30094
:1000A0000C94D3000C94D3000C94D3000C94D30084
:1000B0000C94D3000C94D3000C94D3000C94D30074
:1000C0000C94D3000C94D3000C94D3000C94D30064
:1000D0000C94D3000C94D3000C94D3000C94D30054
:1000E0000C94D3000C94D3000C94D3000C94D30044
:1000F0000C94D3000C94D3000C94D3000C94D30034
:100100000C94D3000C94D3000C94D3000C94D30023
:100110000C94D3000C94D3000C94D3000C94D30013
:100120000C94D3000C94D3000C94D3000C94D30003
:100130000C94D3000C94D3000C94D3000C94D300F3
:100140000C94D3000C94D3000C94D3000C94D300E3
:100150000C94D3000C94D3000C94D3000C94D300D3
:100160000C94D3000C94D3000C94D30011241FBE24
:10017000CFEFCDBFD7E2DEBF10E2A0E0B0E2E0EE0D
:10018000F0E102C005900D92AA34B107D9F720E240
:10019000AAE4B0E201C01D92A73BB207E1F70E94BA
:1001A000BD010C946E080C940000CF93DF93CDB783
:1001B000DEB780E496E020E4FC01218380E496E051
:1001C00021E1FC01268B80E496E020E4FC012583FC
:1001D0000000DF91CF910895CF93DF93CDB7DEB7C5
:1001E00064E070E080E090E00E945401DF91CF91E4
:1001F0000895CF93DF93CDB7DEB764E070E081E080
:1002000090E00E945401DF91CF910895CF93DF9346
:10021000CDB7DEB764E070E082E090E00E94540168
:10022000DF91CF910895CF93DF9300D0CDB7DEB7A4
:1002300089839A8380E090E00F900F90DF91CF91B7
:100240000895CF93DF9300D0CDB7DEB789839A832B
:1002500080E090E00F900F90DF91CF910895CF93C1
:10026000DF9300D0CDB7DEB789839A8380E090E03A
:100270000F900F90DF91CF910895CF93DF93CDB77B
:10028000DEB780E092E022E0FC01228380E092E091
:1002900022E0FC01248380E092E020E1FC01218344
:1002A0000000DF91CF910895CF93DF9300D000D06D
:1002B000CDB7DEB789839A836B837C8380E092E03D
:1002C00029813A8127703327220F331F220F331FD2
:1002D000220F331F322F2B812770232BFC0121A3E8
:1002E0008B819C81019631F480E092E021E8FC0151
:1002F00020A30FC08B819C81049734F080E092E0B2
:1003000023E8FC0120A305C080E092E022E8FC0184
:1003100020A380E092E021E0FC01268380E092E0CF
:1003200025E0FC012083000080E092E0FC01868152
:100330008823D1F380E092E0FC0184A195A124966A
:10034000CDBFDEBFDF91CF9108958BEC809352003B
:1003500088E0809350008091510083FFFCCF88EDAE
:1003600084BF83E0809340000895CF93DF93CDB79F
:10037000DEB70000DF91CF910895CF93DF93CDB723
:10038000DEB76C97CDBFDEBF0E94A5010E940604B8
:100390000E943D010E94D5000E9470030E94BD038F
:1003A0000E94B5010E94B50380EA90E020EA30E0A7
:1003B000F90122812760FC0122838FE390E02FE383
:1003C00030E0F90120812068FC01208380E090E08A
:1003D000AAEFB3E48D839E83AF83B88720E030E03B
:1003E0004AE755E46D817E818F8198850E940105E1
:1003F000DC01CB0189879A87AB87BC8720E030E09E
:1004000040E85FE369857A858B859C850E947B0443
:1004100088232CF481E090E08D879E873FC020E008
:100420003FEF4FE757E469857A858B859C850E946D
:10043000FC0418164CF520E030E040E251E46D81F8
:100440007E818F8198850E940105DC01CB01BC0172
:10045000CD010E948004DC01CB018D879E870FC0F7
:1004600080E991E08F87988B8F8598890197F1F7C4
:100470008F87988B8D859E8501978D879E878D852B
:100480009E85892B69F714C069857A858B859C8543
:100490000E948004DC01CB018D879E878D859E851F
:1004A000898B9A8B89899A890197F1F7898B9A8B25
:1004B00081E08093AE200E94D4020E94F1020E944B
:1004C0000D0380E090E0AAEFB3E489839A83AB83C5
:1004D000BC8320E030E04AE755E469817A818B8172
:1004E0009C810E940105DC01CB018B8B9C8BAD8B29
:1004F000BE8B20E030E040E85FE36B897C898D892A
:100500009E890E947B0488232CF481E090E08F8BED
:10051000988F3FC020E03FEF4FE757E46B897C891D
:100520008D899E890E94FC0418164CF520E030E06D
:1005300040E251E469817A818B819C810E940105AE
:10054000DC01CB01BC01CD010E948004DC01CB01A8
:100550008F8B988F0FC080E991E0898F9A8F898D5A
:100560009A8D0197F1F7898F9A8F8F89988D0197CE
:100570008F8B988F8F89988D892B69F714C06B8921
:100580007C898D899E890E948004DC01CB018F8B40
:10059000988F8F89988D8B8F9C8F8B8D9C8D0197D9
:1005A000F1F78B8F9C8F87CFCF93DF93CDB7DEB7DB
:1005B0008091AE200E9495038091AE20883041F456
:1005C0008091AE208695869586958093AE2005C055
:1005D0008091AE20880F8093AE200000DF91CF91F4
:1005E0000895CF93DF93CDB7DEB70E94E703882F3E
:1005F00090E0292F2F938F938AE190E2892F8F9398
:100600008AE190E28F930E9496050F900F900F90D1
:100610000F900000DF91CF910895EF92FF920F931A
:100620001F93CF93DF93CDB7DEB72697CDBFDEBF45
:100630000E94EC0089839A830E94F9008B839C833B
:100640000E9406018D839E838E818F938D818F936F
:100650008C818F938B818F938A818F9389818F93E4
:1006600087E290E2892F8F9387E290E28F930E9436
:1006700096058DB79EB70896CDBFDEBF8D819E8152
:100680000E942F017C018B819C810E9421018C01A1
:1006900089819A810E9413012F2D2F932E2D2F9344
:1006A000212F2F93202F2F93292F2F938F938AE37E
:1006B00090E2892F8F938AE390E28F930E949605B0
:1006C0008DB79EB70896CDBFDEBF00002696CDBF82
:1006D000DEBFDF91CF911F910F91FF90EF900895B2
:1006E000CF93DF93CDB7DEB780E896E020E836E021
:1006F000F90121812F60FC01218380E896E028E147
:10070000FC01208B80E896E028E1FC01218B80E849
:1007100096E028E1FC01228B80E896E028E1FC01CC
:10072000238B0000DF91CF910895CF93DF931F9229
:10073000CDB7DEB7898380E896E020E836E0F9019E
:100740002481207FFC01248380E896E020E836E0C5
:10075000F9012481322F29812095232BFC01248348
:1007600000000F90DF91CF910895CF93DF93CDB725
:10077000DEB70000DF91CF910895CF93DF93CDB71F
:10078000DEB780E696E020E636E0F90121812E60B2
:10079000FC01218380E696E029E5FC01208B80E6C0
:1007A00096E029E5FC01248B80E696E029E5FC0132
:1007B000258B80E696E029E5FC01268B80E696E015
:1007C00029E5FC01278B0000DF91CF910895CF939D
:1007D000DF931F92CDB7DEB780E696E0FC018085FF
:1007E00089838981882F90E0807F992795958795C7
:1007F0009595879595958795982F89818170892BF7
:10080000898389810F90DF91CF910895CF93DF93F2
:10081000CDB7DEB780E696E028E0FC01218380E6D4
:1008200096E024E0FC01228380EA99E0FC01138237
:1008300080EA99E028E1FC01248380EA99E023E042
:10084000FC01258380EA99E027EDFC01268380EAFC
:1008500099E023E9FC01278380E090E28093B320B4
:100860009093B42080E090E28093B1209093B220E6
:100870000000DF91CF910895CF93DF9300D01F92B6
:10088000CDB7DEB789836A837B8380EA99E02981CB
:10089000FC012083000080EA99E0FC018181882F1F
:1008A00090E080749927892BB1F380EA99E020E4E5
:1008B000FC01218380E090E02396CDBFDEBFDF9175
:1008C000CF910895CF93DF9300D0CDB7DEB7898362
:1008D0009A83000080EA99E0FC0181818823D4F7A3
:1008E00080EA99E0FC018081882F90E00F900F90C2
:1008F000DF91CF9108950E94AF0408F481E008953C
:100900000E94DB0488F09F5798F0B92F9927B751C0
:10091000B0F0E1F0660F771F881F991F1AF0BA95A3
:10092000C9F714C0B13091F00E94F504B1E0089508
:100930000C94F504672F782F8827B85F39F0B93FFA
:10094000CCF3869577956795B395D9F73EF4909556
:100950008095709561957F4F8F4F9F4F0895990FA8
:100960000008550FAA0BE0E8FEEF16161706E80779
:10097000F907C0F012161306E407F50798F0621B9A
:10098000730B840B950B39F40A2661F0232B242B6F
:10099000252B21F408950A2609F4A140A6958FEF8E
:1009A000811D811D089557FD9058440F551F59F022
:1009B0005F3F71F04795880F97FB991F61F09F3F4C
:1009C00079F087950895121613061406551FF2CF75
:1009D0004695F1DF08C0161617061806991FF1CFC5
:1009E00086957105610508940895E894BB276627EC
:1009F0007727CB0197F908950E94AF0408F48FEF91
:100A000008950E9414050C9485050E94770538F01E
:100A10000E947E0520F0952311F00C946E050C9435
:100A2000740511240C94F6040E94D30470F3959F6E
:100A3000C1F3950F50E0551F629FF001729FBB27D5
:100A4000F00DB11D639FAA27F00DB11DAA1F649F71
:100A50006627B00DA11D661F829F2227B00DA11D24
:100A6000621F739FB00DA11D621F839FA00D611DAA
:100A7000221F749F3327A00D611D231F849F600DCB
:100A8000211D822F762F6A2F11249F5750409AF0F4
:100A9000F1F088234AF0EE0FFF1FBB1F661F771F80
:100AA000881F91505040A9F79E3F510580F00C944B
:100AB0006E050C94F6045F3FE4F3983ED4F38695FC
:100AC00077956795B795F795E7959F5FC1F7FE2BEB
:100AD000880F911D9695879597F9089597F99F67C7
:100AE00080E870E060E008959FEF80EC08950024B6
:100AF0000A941616170618060906089500240A9483
:100B000012161306140605060895092E0394000C08
:100B100011F4882352F0BB0F40F4BF2B11F460FF97
:100B200004C06F5F7F4F8F4F9F4F0895A0E0B0E0EC
:100B3000ECE9F5E00C944D08AE014B5F5F4FFA0114
:100B400061917191AF018091B3209091B4200E9486
:100B5000AC05E2E00C946608ABE0B0E0E2EBF5E057
:100B60000C943D086C017B018A01FC0116821782FE
:100B7000838181FFCCC1CE0101963C01F6019381B6
:100B8000F70193FD859193FF81917F01882309F4FB
:100B9000BAC1853239F493FD859193FF81917F012C
:100BA000853229F4B60190E00E94A307E7CF912C8B
:100BB000212C312CFFE1F315D8F08B3279F038F489
:100BC000803279F08332A1F4232D20611DC08D3253
:100BD00061F0803369F4232D216016C0832D82607B
:100BE000382EE32DE4603E2E2AC0F32DF8601DC0A0
:100BF00037FC2DC020ED280F2A3040F08E32B9F49A
:100C000036FC81C1232D2064322E19C036FE06C069
:100C10008AE0989E200D1124922E11C0EAE02E9EAB
:100C2000200D1124222EF32DF0623F2E08C08C36A9
:100C300021F4832D8068382E02C0883641F4F701F4
:100C400093FD859193FF81917F018111B3CF982FFF
:100C50009F7D9554933028F40C5F1F4F9FE3998339
:100C60000DC0833631F0833771F0833509F059C0F8
:100C700021C0F801808189830E5F1F4F88248394EF
:100C8000912C530113C02801F2E04F0E511CF801C2
:100C9000A080B18036FE03C0692D70E002C06FEF06
:100CA0007FEFC5010E9498074C018201F32DFF7769
:100CB0003F2E16C0280122E0420E511CF801A080F0
:100CC000B18036FE03C0692D70E002C06FEF7FEF88
:100CD000C5010E948D074C01F32DF0683F2E820163
:100CE00033FC1BC0822D90E088169906B0F4B60143
:100CF00080E290E00E94A3072A94F4CFF50137FC2C
:100D0000859137FE81915F01B60190E00E94A307B3
:100D100021102A9421E0821A91088114910471F71C
:100D2000E8C0843611F0893641F5F80137FE07C076
:100D300060817181828193810C5F1F4F08C0608147
:100D40007181072E000C880B990B0E5F1F4FF32D3E
:100D5000FF763F2E97FF09C090958095709561951D
:100D60007F4F8F4F9F4FF0683F2E2AE030E0A30166
:100D70000E94DF07882E861845C0853731F4232D61
:100D80002F7EB22E2AE030E025C0932D997FB92E18
:100D90008F36C1F018F4883579F0B5C0803719F076
:100DA000883721F0B0C0E92FE061BE2EB4FE0DC03F
:100DB000FB2DF460BF2E09C034FE0AC0292F266027
:100DC000B22E06C028E030E005C020E130E002C0CD
:100DD00020E132E0F801B7FE07C0608171818281B5
:100DE00093810C5F1F4F06C06081718180E090E0AD
:100DF0000E5F1F4FA3010E94DF07882E8618FB2D70
:100E0000FF773F2E36FE0DC0232D2E7FA22E891494
:100E100058F434FE0BC032FC09C0832D8E7EA82E00
:100E200005C0B82CA32C03C0B82C01C0B92CA4FE5B
:100E30000FC0FE01E80DF11D8081803321F49A2D51
:100E4000997EA92E09C0A2FE06C0B394B39404C033
:100E50008A2D867809F0B394A3FC11C0A0FE06C0C9
:100E6000B21488F4280C922C9B180EC0B21460F4B3
:100E7000B60180E290E00E94A307B394F7CFB214CA
:100E800018F42B1802C0982C212CA4FE10C0B60117
:100E900080E390E00E94A307A2FE17C0A1FC03C05C
:100EA00088E790E002C088E590E0B6010CC08A2D8A
:100EB000867859F0A1FE02C08BE201C080E2A7FC57
:100EC0008DE2B60190E00E94A307891438F4B601C0
:100ED00080E390E00E94A3079A94F7CF8A94F301ED
:100EE000E80DF11D8081B60190E00E94A3078110FA
:100EF000F5CF222009F442CEB60180E290E00E94B4
:100F0000A3072A94F6CFF6018681978102C08FEF5E
:100F10009FEF2B96E2E10C945608FC01059061507E
:100F200070400110D8F7809590958E0F9F1F0895FF
:100F3000FC016150704001900110D8F780959095A8
:100F40008E0F9F1F08950F931F93CF93DF93FB0185
:100F5000238121FD03C08FEF9FEF2CC022FF16C01D
:100F600046815781248135814217530744F4A0817B
:100F7000B1819D012F5F3F4F208331838C93268168
:100F800037812F5F3F4F2683378314C08B01EC01DD
:100F9000FB010084F185E02D0995892BE1F6D8014C
:100FA00016968D919C911797019616968D939C930A
:100FB0001797CE01DF91CF911F910F910895FA01FC
:100FC000AA27283051F1203181F1E8946F936E7F88
:100FD0006E5F7F4F8F4F9F4FAF4FB1E03ED0B4E079
:100FE0003CD0670F781F891F9A1FA11D680F791FBA
:100FF0008A1F911DA11D6A0F711D811D911DA11DCB
:1010000020D009F468943F912AE0269F11243019DA
:10101000305D3193DEF6CF010895462F4770405D75
:101020004193B3E00FD0C9F7F6CF462F4F70405D24
:101030004A3318F0495D31FD4052419302D0A9F77F
:10104000EACFB4E0A6959795879577956795BA9579
:10105000C9F700976105710508959B01AC010A2E3F
:1010600006945795479537952795BA95C9F7620F16
:10107000731F841F951FA01D08952F923F924F92BA
:101080005F926F927F928F929F92AF92BF92CF9218
:10109000DF92EF92FF920F931F93CF93DF93CDB721
:1010A000DEB7CA1BDB0BCDBFDEBF09942A883988A7
:1010B00048885F846E847D848C849B84AA84B984F0
:1010C000C884DF80EE80FD800C811B81AA81B981FC
:1010D000CE0FD11DCDBFDEBFED010895F894FFCF37
:1010E00000000002000000003C0462040000436FA6
:1010F000756E7465723A25640D0024535749544344
:10110000482025640D0A00244143435241572025BD
:10111000642025642025640D0A00244143432025D2
:0A112000642025642025640D0A00F8
:00000001FF
