:100000000C94B6000C94D3000C94D3000C94D30041
:100010000C94D3000C94D3000C94D3000C94D30014
:100020000C94D3000C94D3000C94D3000C94D30004
:100030000C94D3000C94D3000C94D3000C94D300F4
:100040000C94D3000C94D3000C94D3000C94D300E4
:100050000C94D3000C94D3000C94D3000C94D300D4
:100060000C94D3000C94D3000C94D3000C94D300C4
:100070000C94D3000C94D3000C94D3000C94D300B4
:100080000C94D3000C94D3000C94D3000C94D300A4
:100090000C94D3000C94D3000C94D3000C94D30094
:1000A0000C94D3000C94D3000C94D3000C94D30084
:1000B0000C94D3000C94D3000C94D3000C94D30074
:1000C0000C94D3000C94D3000C94D3000C94D30064
:1000D0000C94D3000C94D3000C94D3000C94D30054
:1000E0000C94D3000C94D3000C94D3000C94D30044
:1000F0000C94D3000C94D3000C94D3000C94D30034
:100100000C94D3000C94D3000C94D3000C94D30023
:100110000C94D3000C94D3000C94D3000C94D30013
:100120000C94D3000C94D3000C94D3000C94D30003
:100130000C94D3000C94D3000C94D3000C94D300F3
:100140000C94D3000C94D3000C94D3000C94D300E3
:100150000C94D3000C94D3000C94D3000C94D300D3
:100160000C94D3000C94D3000C94D30011241FBE24
:10017000CFEFCDBFD7E2DEBF10E2A0E0B0E2E4EA0D
:10018000FDE002C005900D92A632B107D9F720E23A
:10019000A6E2B0E201C01D92A239B207E1F70E94C7
:1001A0000C010C94D0060C940000CF93DF93CDB7D4
:1001B000DEB70000DF91CF910895CF93DF93CDB7E5
:1001C000DEB780E092E022E0FC01228380E092E052
:1001D00022E0FC01248380E092E025E0FC01208302
:1001E0000000DF91CF9108958BEC8093520088E05E
:1001F000809350008091510083FFFCCF88ED84BF35
:1002000083E0809340000895CF93DF93CDB7DEB7AE
:100210000000DF91CF910895CF93DF93CDB7DEB784
:100220002E97CDBFDEBF0E94F4000E942C020E94D8
:10023000DD000E94D5000E94FF010E9404010E947F
:10024000240280EA90E020EA30E0F9012281276070
:10025000FC0122838FE390E02FE330E0F90120815D
:100260002068FC01208380E090E0AAEFB3E489835A
:100270009A83AB83BC8320E030E04AE755E4698190
:100280007A818B819C810E942703DC01CB018D83C5
:100290009E83AF83B88720E030E040E85FE36D8164
:1002A0007E818F8198850E94A10288232CF481E0B1
:1002B00090E089879A873FC020E03FEF4FE757E4FF
:1002C0006D817E818F8198850E94220318164CF5DE
:1002D00020E030E040E251E469817A818B819C81A9
:1002E0000E942703DC01CB01BC01CD010E94A602C4
:1002F000DC01CB0189879A870FC080E991E08B8769
:100300009C878B859C850197F1F78B879C878985D6
:100310009A85019789879A8789859A85892B69F7B4
:1003200014C06D817E818F8198850E94A602DC01B8
:10033000CB0189879A8789859A858D879E878D8548
:100340009E850197F1F78D879E870E94A801FFCFB8
:10035000CF93DF93CDB7DEB710928A2010928B2017
:1003600043C040918A2050918B2080918A209091A7
:100370008B20880F991F9C01220F331F220F331FE0
:10038000820F931F8A5D9F4D252F2F93242F2F932C
:100390002EE030E2232F2F932EE030E22F93292FEF
:1003A0002F938F930E94EC030F900F900F900F905C
:1003B0000F900F9080918A2090918B20880F991F29
:1003C0009C01220F331F220F331F820F931F8A5D60
:1003D0009F4D0E94BC0380918A2090918B200196B2
:1003E00080938A2090938B2080918A2090918B20FB
:1003F0000A970CF4B6CF0000DF91CF910895CF9308
:10040000DF93CDB7DEB780E896E020E836E0F9016B
:1004100021812F60FC01218380E896E028E1FC0126
:10042000208B80E896E028E1FC01218B80E896E0B3
:1004300028E1FC01228B80E896E028E1FC01238B77
:100440000000DF91CF910895CF93DF93CDB7DEB752
:100450000000DF91CF910895CF93DF93CDB7DEB742
:1004600080E496E028E0FC01218380E496E024E02B
:10047000FC01228380EA98E0FC01138280EA98E084
:1004800028E1FC01248380EA98E023E0FC01258335
:1004900080EA98E027EDFC01268380EA98E023E9D2
:1004A000FC01278380E090E280938E2090938F2040
:1004B00080E090E280938C2090938D200000DF916B
:1004C000CF910895CF93DF9300D01F92CDB7DEB7C1
:1004D00089836A837B8380EA98E025E5FC01208399
:1004E000000080EA98E0FC018181882F90E0807410
:1004F0009927892BB1F380EA98E020E4FC0121835D
:1005000080E090E02396CDBFDEBFDF91CF910895CC
:10051000CF93DF9300D0CDB7DEB789839A830000F5
:1005200080EA98E0FC0181818823D4F780EA98E092
:10053000FC018081882F90E00F900F90DF91CF9188
:1005400008950E94D50208F481E008950E940103F5
:1005500088F09F5798F0B92F9927B751B0F0E1F084
:10056000660F771F881F991F1AF0BA95C9F714C034
:10057000B13091F00E941B03B1E008950C941B036D
:10058000672F782F8827B85F39F0B93FCCF386956D
:1005900077956795B395D9F73EF4909580957095CA
:1005A00061957F4F8F4F9F4F0895990F0008550F0A
:1005B000AA0BE0E8FEEF16161706E807F907C0F0E9
:1005C00012161306E407F50798F0621B730B840BF1
:1005D000950B39F40A2661F0232B242B252B21F4CB
:1005E00008950A2609F4A140A6958FEF811D811D6B
:1005F000089557FD9058440F551F59F05F3F71F013
:100600004795880F97FB991F61F09F3F79F0879579
:100610000895121613061406551FF2CF4695F1DF02
:1006200008C0161617061806991FF1CF8695710592
:10063000610508940895E894BB2766277727CB01C6
:1006400097F908950E94D50208F48FEF08950E944B
:100650003A030C94AB030E949D0338F00E94A4035C
:1006600020F0952311F00C9494030C949A03112418
:100670000C941C030E94F90270F3959FC1F3950F2F
:1006800050E0551F629FF001729FBB27F00DB11D16
:10069000639FAA27F00DB11DAA1F649F6627B00DA6
:1006A000A11D661F829F2227B00DA11D621F739F8F
:1006B000B00DA11D621F839FA00D611D221F749F9D
:1006C0003327A00D611D231F849F600D211D822FE4
:1006D000762F6A2F11249F5750409AF0F1F088230B
:1006E0004AF0EE0FFF1FBB1F661F771F881F915038
:1006F0005040A9F79E3F510580F00C9494030C9450
:100700001C035F3FE4F3983ED4F386957795679595
:10071000B795F795E7959F5FC1F7FE2B880F911D61
:100720009695879597F9089597F99F6780E870E007
:1007300060E008959FEF80EC089500240A94161657
:10074000170618060906089500240A9412161306BF
:10075000140605060895092E0394000C11F488234D
:1007600052F0BB0F40F4BF2B11F460FF04C06F5F69
:100770007F4F8F4F9F4F08950F931F93CF93DF931A
:10078000E0918E20F0918F20238121FF1BC08C01EE
:10079000D0E0C0E0F80181918F0160918E207091CE
:1007A0008F20DB011896ED91FC911997882331F089
:1007B0000995892B79F3DFEFCFEFECCF8AE009952C
:1007C000892B19F08FEF9FEF02C08D2F9C2FDF91A7
:1007D000CF911F910F910895AEE0B0E0E2EFF3E00A
:1007E0000C94AD060D891E8986E08C8309831A83DB
:1007F0008FEF9FE78D839E83AE01475E5F4F6F89CA
:10080000788DCE0101960E940E04EF81F885E00FED
:10081000F11F10822E96E4E00C94C606ABE0B0E027
:10082000E4E1F4E00C949F066C017B018A01FC0179
:1008300016821782838181FFCCC1CE0101963C01D3
:10084000F6019381F70193FD859193FF81917F01DB
:10085000882309F4BAC1853239F493FD859193FF59
:1008600081917F01853229F4B60190E00E9405064E
:10087000E7CF912C212C312CFFE1F315D8F08B32EE
:1008800079F038F4803279F08332A1F4232D20619D
:100890001DC08D3261F0803369F4232D216016C0B4
:1008A000832D8260382EE32DE4603E2E2AC0F32D86
:1008B000F8601DC037FC2DC020ED280F2A3040F015
:1008C0008E32B9F436FC81C1232D2064322E19C03A
:1008D00036FE06C08AE0989E200D1124922E11C08B
:1008E000EAE02E9E200D1124222EF32DF0623F2EE1
:1008F00008C08C3621F4832D8068382E02C08836DB
:1009000041F4F70193FD859193FF81917F0181115E
:10091000B3CF982F9F7D9554933028F40C5F1F4FD1
:100920009FE399830DC0833631F0833771F08335AF
:1009300009F059C021C0F801808189830E5F1F4FE3
:1009400088248394912C530113C02801F2E04F0EA8
:10095000511CF801A080B18036FE03C0692D70E003
:1009600002C06FEF7FEFC5010E94FA054C018201C2
:10097000F32DFF773F2E16C0280122E0420E511CB6
:10098000F801A080B18036FE03C0692D70E002C07E
:100990006FEF7FEFC5010E94EF054C01F32DF0686A
:1009A0003F2E820133FC1BC0822D90E088169906F1
:1009B000B0F4B60180E290E00E9405062A94F4CFDC
:1009C000F50137FC859137FE81915F01B60190E01A
:1009D0000E94050621102A9421E0821A91088114B0
:1009E000910471F7E8C0843611F0893641F5F801B9
:1009F00037FE07C060817181828193810C5F1F4F38
:100A000008C060817181072E000C880B990B0E5F66
:100A10001F4FF32DFF763F2E97FF09C090958095CD
:100A2000709561957F4F8F4F9F4FF0683F2E2AE062
:100A300030E0A3010E944106882E861845C0853704
:100A400031F4232D2F7EB22E2AE030E025C0932DE5
:100A5000997FB92E8F36C1F018F4883579F0B5C07A
:100A6000803719F0883721F0B0C0E92FE061BE2E41
:100A7000B4FE0DC0FB2DF460BF2E09C034FE0AC0C9
:100A8000292F2660B22E06C028E030E005C020E104
:100A900030E002C020E132E0F801B7FE07C060811B
:100AA0007181828193810C5F1F4F06C060817181CB
:100AB00080E090E00E5F1F4FA3010E944106882E48
:100AC0008618FB2DFF773F2E36FE0DC0232D2E7F7F
:100AD000A22E891458F434FE0BC032FC09C0832DB9
:100AE0008E7EA82E05C0B82CA32C03C0B82C01C044
:100AF000B92CA4FE0FC0FE01E80DF11D80818033EA
:100B000021F49A2D997EA92E09C0A2FE06C0B394A5
:100B1000B39404C08A2D867809F0B394A3FC11C065
:100B2000A0FE06C0B21488F4280C922C9B180EC0AC
:100B3000B21460F4B60180E290E00E940506B3941E
:100B4000F7CFB21418F42B1802C0982C212CA4FE55
:100B500010C0B60180E390E00E940506A2FE17C017
:100B6000A1FC03C088E790E002C088E590E0B601F0
:100B70000CC08A2D867859F0A1FE02C08BE201C01C
:100B800080E2A7FC8DE2B60190E00E940506891480
:100B900038F4B60180E390E00E9405069A94F7CFFE
:100BA0008A94F301E80DF11D8081B60190E00E9466
:100BB00005068110F5CF222009F442CEB60180E26D
:100BC00090E00E9405062A94F6CFF601868197816F
:100BD00002C08FEF9FEF2B96E2E10C94B806FC0168
:100BE0000590615070400110D8F7809590958E0F58
:100BF0009F1F0895FC016150704001900110D8F7CB
:100C0000809590958E0F9F1F08950F931F93CF93FC
:100C1000DF93FB01238121FD03C08FEF9FEF2CC0E9
:100C200022FF16C046815781248135814217530720
:100C300044F4A081B1819D012F5F3F4F2083318318
:100C40008C93268137812F5F3F4F2683378314C0D3
:100C50008B01EC01FB010084F185E02D0995892BC6
:100C6000E1F6D80116968D919C91179701961696EC
:100C70008D939C931797CE01DF91CF911F910F9188
:100C80000895FA01AA27283051F1203181F1E89422
:100C90006F936E7F6E5F7F4F8F4F9F4FAF4FB1E06F
:100CA0003ED0B4E03CD0670F781F891F9A1FA11D6A
:100CB000680F791F8A1F911DA11D6A0F711D811D6B
:100CC000911DA11D20D009F468943F912AE0269F30
:100CD00011243019305D3193DEF6CF010895462F8F
:100CE0004770405D4193B3E00FD0C9F7F6CF462F70
:100CF0004F70405D4A3318F0495D31FD40524193D9
:100D000002D0A9F7EACFB4E0A69597958795779595
:100D10006795BA95C9F700976105710508959B011C
:100D2000AC010A2E06945795479537952795BA95A5
:100D3000C9F7620F731F841F951FA01D08952F927E
:100D40003F924F925F926F927F928F929F92AF925B
:100D5000BF92CF92DF92EF92FF920F931F93CF93A8
:100D6000DF93CDB7DEB7CA1BDB0BCDBFDEBF099467
:100D70002A88398848885F846E847D848C849B842B
:100D8000AA84B984C884DF80EE80FD800C811B8139
:100D9000AA81B981CE0FD11DCDBFDEBFED0108956F
:040DA000F894FFCFF5
:100DA4000000000200000000620288020000436F9D
:100DB400756E7465723A25640D005357495443485F
:060DC40020780D0A00007A
:00000001FF
